{
  "_format": "hh-sol-artifact-1",
  "contractName": "CrowdFundingContract",
  "sourceName": "contracts/CrowdFundingContract.sol",
  "abi": [
    {
      "anonymous": false,
      "inputs": [
        {
          "indexed": false,
          "internalType": "uint8",
          "name": "version",
          "type": "uint8"
        }
      ],
      "name": "Initialized",
      "type": "event"
    },
    {
      "anonymous": false,
      "inputs": [
        {
          "indexed": true,
          "internalType": "address",
          "name": "donor",
          "type": "address"
        },
        {
          "indexed": false,
          "internalType": "uint256",
          "name": "amount",
          "type": "uint256"
        },
        {
          "indexed": false,
          "internalType": "uint256",
          "name": "date",
          "type": "uint256"
        }
      ],
      "name": "fundsDonated",
      "type": "event"
    },
    {
      "anonymous": false,
      "inputs": [
        {
          "indexed": true,
          "internalType": "address",
          "name": "owner",
          "type": "address"
        },
        {
          "indexed": false,
          "internalType": "uint256",
          "name": "amount",
          "type": "uint256"
        },
        {
          "indexed": false,
          "internalType": "uint256",
          "name": "date",
          "type": "uint256"
        }
      ],
      "name": "fundsWithdrawn",
      "type": "event"
    },
    {
      "anonymous": false,
      "inputs": [
        {
          "indexed": true,
          "internalType": "address",
          "name": "owner",
          "type": "address"
        },
        {
          "indexed": false,
          "internalType": "uint256",
          "name": "datecreated",
          "type": "uint256"
        },
        {
          "indexed": false,
          "internalType": "uint256",
          "name": "period",
          "type": "uint256"
        }
      ],
      "name": "milestoneCreated",
      "type": "event"
    },
    {
      "anonymous": false,
      "inputs": [
        {
          "indexed": false,
          "internalType": "uint256",
          "name": "yesvote",
          "type": "uint256"
        },
        {
          "indexed": false,
          "internalType": "uint256",
          "name": "novote",
          "type": "uint256"
        }
      ],
      "name": "milestoneRejected",
      "type": "event"
    },
    {
      "inputs": [],
      "name": "amountOfDonation",
      "outputs": [
        {
          "internalType": "uint256",
          "name": "",
          "type": "uint256"
        }
      ],
      "stateMutability": "view",
      "type": "function"
    },
    {
      "inputs": [],
      "name": "campaignDuration",
      "outputs": [
        {
          "internalType": "uint256",
          "name": "",
          "type": "uint256"
        }
      ],
      "stateMutability": "view",
      "type": "function"
    },
    {
      "inputs": [],
      "name": "campaignEnded",
      "outputs": [
        {
          "internalType": "bool",
          "name": "",
          "type": "bool"
        }
      ],
      "stateMutability": "view",
      "type": "function"
    },
    {
      "inputs": [],
      "name": "campaignOwner",
      "outputs": [
        {
          "internalType": "address payable",
          "name": "",
          "type": "address"
        }
      ],
      "stateMutability": "view",
      "type": "function"
    },
    {
      "inputs": [
        {
          "internalType": "string",
          "name": "milestoneCID",
          "type": "string"
        },
        {
          "internalType": "uint256",
          "name": "votingPeriod",
          "type": "uint256"
        }
      ],
      "name": "createNewMilestone",
      "outputs": [],
      "stateMutability": "nonpayable",
      "type": "function"
    },
    {
      "inputs": [
        {
          "internalType": "address",
          "name": "",
          "type": "address"
        }
      ],
      "name": "donors",
      "outputs": [
        {
          "internalType": "uint256",
          "name": "",
          "type": "uint256"
        }
      ],
      "stateMutability": "view",
      "type": "function"
    },
    {
      "inputs": [],
      "name": "etherBalance",
      "outputs": [
        {
          "internalType": "uint256",
          "name": "",
          "type": "uint256"
        }
      ],
      "stateMutability": "view",
      "type": "function"
    },
    {
      "inputs": [],
      "name": "fundingId",
      "outputs": [
        {
          "internalType": "string",
          "name": "",
          "type": "string"
        }
      ],
      "stateMutability": "view",
      "type": "function"
    },
    {
      "inputs": [],
      "name": "getFundingcid",
      "outputs": [
        {
          "internalType": "string",
          "name": "",
          "type": "string"
        }
      ],
      "stateMutability": "view",
      "type": "function"
    },
    {
      "inputs": [],
      "name": "getTargetAmount",
      "outputs": [
        {
          "internalType": "uint256",
          "name": "",
          "type": "uint256"
        }
      ],
      "stateMutability": "view",
      "type": "function"
    },
    {
      "inputs": [
        {
          "internalType": "string",
          "name": "_fundingId",
          "type": "string"
        },
        {
          "internalType": "uint256",
          "name": "_amount",
          "type": "uint256"
        },
        {
          "internalType": "uint256",
          "name": "_duration",
          "type": "uint256"
        }
      ],
      "name": "initialize",
      "outputs": [],
      "stateMutability": "nonpayable",
      "type": "function"
    },
    {
      "inputs": [],
      "name": "makeDonation",
      "outputs": [],
      "stateMutability": "payable",
      "type": "function"
    },
    {
      "inputs": [
        {
          "internalType": "uint256",
          "name": "",
          "type": "uint256"
        }
      ],
      "name": "milestones",
      "outputs": [
        {
          "internalType": "string",
          "name": "milestoneCID",
          "type": "string"
        },
        {
          "internalType": "bool",
          "name": "approved",
          "type": "bool"
        },
        {
          "internalType": "uint256",
          "name": "votingPeriod",
          "type": "uint256"
        },
        {
          "internalType": "enum CrowdFundingContract.MilestoneStatus",
          "name": "status",
          "type": "uint8"
        }
      ],
      "stateMutability": "view",
      "type": "function"
    },
    {
      "inputs": [],
      "name": "numberOfDonors",
      "outputs": [
        {
          "internalType": "uint256",
          "name": "",
          "type": "uint256"
        }
      ],
      "stateMutability": "view",
      "type": "function"
    },
    {
      "inputs": [],
      "name": "showCurrentMillestone",
      "outputs": [
        {
          "components": [
            {
              "internalType": "string",
              "name": "milestoneCID",
              "type": "string"
            },
            {
              "internalType": "bool",
              "name": "approved",
              "type": "bool"
            },
            {
              "internalType": "uint256",
              "name": "votingPeriod",
              "type": "uint256"
            },
            {
              "internalType": "enum CrowdFundingContract.MilestoneStatus",
              "name": "status",
              "type": "uint8"
            },
            {
              "components": [
                {
                  "internalType": "address",
                  "name": "donorAddress",
                  "type": "address"
                },
                {
                  "internalType": "bool",
                  "name": "vote",
                  "type": "bool"
                }
              ],
              "internalType": "struct CrowdFundingContract.MilestoneVote[]",
              "name": "votes",
              "type": "tuple[]"
            }
          ],
          "internalType": "struct CrowdFundingContract.Milestone",
          "name": "",
          "type": "tuple"
        }
      ],
      "stateMutability": "view",
      "type": "function"
    },
    {
      "inputs": [],
      "name": "targetAmount",
      "outputs": [
        {
          "internalType": "uint256",
          "name": "",
          "type": "uint256"
        }
      ],
      "stateMutability": "view",
      "type": "function"
    },
    {
      "inputs": [
        {
          "internalType": "bool",
          "name": "vote",
          "type": "bool"
        }
      ],
      "name": "voteOnMilestone",
      "outputs": [],
      "stateMutability": "nonpayable",
      "type": "function"
    },
    {
      "inputs": [],
      "name": "withdrawMilestone",
      "outputs": [],
      "stateMutability": "nonpayable",
      "type": "function"
    }
  ],
  "bytecode": "0x608060405234801561001057600080fd5b50611767806100206000396000f3fe6080604052600436106101095760003560e01c8063977d08c011610095578063ba53619311610064578063ba5361931461027a578063bf2928a61461029a578063c398d56d146102af578063ca0cdea8146102c5578063e89e4ed6146102f257600080fd5b8063977d08c01461020a5780639cc4e8581461022a578063ad66e52a1461023f578063b17fac221461025257600080fd5b806364b2e2d9116100dc57806364b2e2d91461018857806384c67b761461019d5780638e692464146101bf57806391ac4b88146101df578063953b8fb8146101f457600080fd5b80633bc47fbe1461010e57806340ea0a941461013d5780634befdaea146101475780635f62d74714610166575b600080fd5b34801561011a57600080fd5b506002546101289060ff1681565b60405190151581526020015b60405180910390f35b610145610322565b005b34801561015357600080fd5b506004545b604051908152602001610134565b34801561017257600080fd5b5061017b6104ad565b6040516101349190611284565b34801561019457600080fd5b50600554610158565b3480156101a957600080fd5b506101b2610633565b604051610134919061132e565b3480156101cb57600080fd5b506101456101da3660046113eb565b6106c1565b3480156101eb57600080fd5b50600354610158565b34801561020057600080fd5b5061015860035481565b34801561021657600080fd5b50610145610225366004611430565b610899565b34801561023657600080fd5b506101b26109ce565b34801561024b57600080fd5b5047610158565b34801561025e57600080fd5b506009546040516001600160a01b039091168152602001610134565b34801561028657600080fd5b5061014561029536600461147e565b610a60565b3480156102a657600080fd5b50610145610c57565b3480156102bb57600080fd5b5061015860065481565b3480156102d157600080fd5b506101586102e03660046114a0565b600a6020526000908152604090205481565b3480156102fe57600080fd5b5061031261030d3660046114c9565b611095565b60405161013494939291906114e2565b600254349060ff161561036d5760405162461bcd60e51b815260206004820152600e60248201526d18d85b5c185a59db88115b99195960921b60448201526064015b60405180910390fd5b600081116103b25760405162461bcd60e51b8152602060048201526012602482015271596f7520646964206e6f7420646f6e61746560701b6044820152606401610364565b6008546003036104045760405162461bcd60e51b815260206004820152601960248201527f6e6f206c6f6e6765722074616b696e6720646f6e6174696f6e000000000000006044820152606401610364565b336000908152600a602052604081205490036104335760016005600082825461042d9190611531565b90915550505b336000908152600a602052604081208054839290610452908490611531565b92505081905550806004600082825461046b9190611531565b90915550506040805182815242602082015233917fd29f399086278dee53663dd4e0301a10b961dca23fe84dd7da6d09519a3fa63f910160405180910390a250565b6104b56111c4565b60075463ffffffff166000908152600b602052604090819020815160a081019092528054829082906104e69061154a565b80601f01602080910402602001604051908101604052809291908181526020018280546105129061154a565b801561055f5780601f106105345761010080835404028352916020019161055f565b820191906000526020600020905b81548152906001019060200180831161054257829003601f168201915b5050509183525050600182015460ff9081161515602083015260028084015460408401526003840154606090930192909116908111156105a1576105a161124c565b60028111156105b2576105b261124c565b815260200160048201805480602002602001604051908101604052809291908181526020016000905b8282101561062657600084815260209081902060408051808201909152908401546001600160a01b0381168252600160a01b900460ff161515818301528252600190920191016105db565b5050505081525050905090565b600180546106409061154a565b80601f016020809104026020016040519081016040528092919081815260200182805461066c9061154a565b80156106b95780601f1061068e576101008083540402835291602001916106b9565b820191906000526020600020905b81548152906001019060200180831161069c57829003601f168201915b505050505081565b6009546001600160a01b031633146107135760405162461bcd60e51b81526020600482015260156024820152743cb7ba9030b932903737ba103a34329037bbb732b960591b6044820152606401610364565b600260075463ffffffff166000908152600b602052604090206003015460ff1660028111156107445761074461124c565b036107915760405162461bcd60e51b815260206004820152601c60248201527f596f75206861766520612070656e64696e67206d696c6573746f6e65000000006044820152606401610364565b6008546003036107e35760405162461bcd60e51b815260206004820152601c60248201527f6e6f206d6f7265206d696c6573746f6e657320746f20637265617465000000006044820152606401610364565b6007805463ffffffff169060006107f983611584565b82546101009290920a63ffffffff818102199093169183160217909155600754166000908152600b6020526040902090508061083584826115f6565b5060018101805460ff199081169091556002808301849055600383018054909216179055604080514281526020810184905233917f369b968b1b19cd17fac61667f3b2c51629d76d608ab6028eae885b6d667a5d19910160405180910390a2505050565b600054610100900460ff16158080156108b95750600054600160ff909116105b806108d35750303b1580156108d3575060005460ff166001145b6109365760405162461bcd60e51b815260206004820152602e60248201527f496e697469616c697a61626c653a20636f6e747261637420697320616c72656160448201526d191e481a5b9a5d1a585b1a5e995960921b6064820152608401610364565b6000805460ff191660011790558015610959576000805461ff0019166101001790555b600980546001600160a01b03191632179055600161097785826115f6565b506003839055600682905580156109c8576000805461ff0019169055604051600181527f7f26b83ff96e1f2b6a682f133852f6798a09c465da95921460cefb38474024989060200160405180910390a15b50505050565b6060600180546109dd9061154a565b80601f0160208091040260200160405190810160405280929190818152602001828054610a099061154a565b8015610a565780601f10610a2b57610100808354040283529160200191610a56565b820191906000526020600020905b815481529060010190602001808311610a3957829003601f168201915b5050505050905090565b600260075463ffffffff166000908152600b602052604090206003015460ff166002811115610a9157610a9161124c565b14610ade5760405162461bcd60e51b815260206004820152601960248201527f63616e206e6f7420766f7465206f6e206d696c6573746f6e65000000000000006044820152606401610364565b336000908152600a60205260408120549003610b325760405162461bcd60e51b81526020600482015260136024820152723cb7ba9030b932903737ba1030903237b737b960691b6044820152606401610364565b60075463ffffffff166000908152600b6020526040812060040154815b81831015610be05760075463ffffffff166000908152600b60205260408120600401805485908110610b8357610b836116b6565b6000918252602091829020604080518082019091529101546001600160a01b038116808352600160a01b90910460ff161515928201929092529150339003610bcf576001915050610be0565b50610bd9836116cc565b9250610b4f565b806109c8575050604080518082018252338152921515602080850191825260075463ffffffff166000908152600b825292832060040180546001810182559084529220935193909101805491511515600160a01b026001600160a81b03199092166001600160a01b03909416939093171790915550565b6009546001600160a01b03163314610ca55760405162461bcd60e51b81526020600482015260116024820152703cb7ba903737ba103a34329037bbb732b960791b6044820152606401610364565b60075463ffffffff166000908152600b60205260409020600201544211610d005760405162461bcd60e51b815260206004820152600f60248201526e3b37ba34b7339039ba34b6361037b760891b6044820152606401610364565b600260075463ffffffff166000908152600b602052604090206003015460ff166002811115610d3157610d3161124c565b14610d705760405162461bcd60e51b815260206004820152600f60248201526e1b5a5b195cdd1bdb9948195b991959608a1b6044820152606401610364565b60075463ffffffff166000908152600b6020908152604080832060040180548251818502810185019093528083528493610e0093929190859084015b82821015610df757600084815260209081902060408051808201909152908401546001600160a01b0381168252600160a01b900460ff16151581830152825260019092019101610dac565b5050505061114c565b91509150600081600554610e1491906116e5565b905060006003670de0b6b3a76400006005546002610e3291906116f8565b610e3c91906116f8565b610e46919061170f565b90506000610e5c670de0b6b3a7640000846116f8565b905081811061102e5760075463ffffffff166000908152600b602052604081206001908101805460ff191690911790556008805491610e9a836116cc565b909155505060075463ffffffff166000908152600b60205260409020600301805460ff191690554780610f055760405162461bcd60e51b81526020600482015260136024820152726e6f7468696e6720746f20776974686472617760681b6044820152606401610364565b6000600854600103610f2357610f1c60038361170f565b9050610f48565b600854600203610f3857610f1c60028361170f565b506002805460ff19166001179055805b6009546040516000916001600160a01b03169083908381818185875af1925050503d8060008114610f95576040519150601f19603f3d011682016040523d82523d6000602084013e610f9a565b606091505b5050905080610fdf5760405162461bcd60e51b81526020600482015260116024820152701dda5d1a191c985dd85b0819985a5b1959607a1b6044820152606401610364565b600954604080518481524260208201526001600160a01b03909216917f8ed9ba5fd9426895c74647bedd96d162e9c409e3dadd567aeba6afe82e18e826910160405180910390a250505061108e565b60075463ffffffff166000908152600b6020908152604091829020600301805460ff1916600117905581518781529081018690527fe9aea105de24662e3f5c0bb5db4fff641066a5b5f74ea0e1c236b1a249a187d6910160405180910390a15b5050505050565b600b602052600090815260409020805481906110b09061154a565b80601f01602080910402602001604051908101604052809291908181526020018280546110dc9061154a565b80156111295780601f106110fe57610100808354040283529160200191611129565b820191906000526020600020905b81548152906001019060200180831161110c57829003601f168201915b5050505060018301546002840154600390940154929360ff918216939092501684565b60008060008060008551905060005b818110156111b857868181518110611175576111756116b6565b6020026020010151602001511515600115150361119c57611195846116cc565b93506111a8565b6111a5836116cc565b92505b6111b1816116cc565b905061115b565b50919590945092505050565b6040518060a001604052806060815260200160001515815260200160008152602001600060028111156111f9576111f961124c565b8152602001606081525090565b6000815180845260005b8181101561122c57602081850181015186830182015201611210565b506000602082860101526020601f19601f83011685010191505092915050565b634e487b7160e01b600052602160045260246000fd5b6003811061128057634e487b7160e01b600052602160045260246000fd5b9052565b60006020808352835160a0828501526112a060c0850182611206565b905081850151604081151581870152808701516060870152606087015191506112cc6080870183611262565b6080870151868403601f190160a0880152805180855290850193600093508501905b8084101561132257845180516001600160a01b031683528601511515868301529385019360019390930192908201906112ee565b50979650505050505050565b6020815260006113416020830184611206565b9392505050565b634e487b7160e01b600052604160045260246000fd5b600082601f83011261136f57600080fd5b813567ffffffffffffffff8082111561138a5761138a611348565b604051601f8301601f19908116603f011681019082821181831017156113b2576113b2611348565b816040528381528660208588010111156113cb57600080fd5b836020870160208301376000602085830101528094505050505092915050565b600080604083850312156113fe57600080fd5b823567ffffffffffffffff81111561141557600080fd5b6114218582860161135e565b95602094909401359450505050565b60008060006060848603121561144557600080fd5b833567ffffffffffffffff81111561145c57600080fd5b6114688682870161135e565b9660208601359650604090950135949350505050565b60006020828403121561149057600080fd5b8135801515811461134157600080fd5b6000602082840312156114b257600080fd5b81356001600160a01b038116811461134157600080fd5b6000602082840312156114db57600080fd5b5035919050565b6080815260006114f56080830187611206565b905084151560208301528360408301526115126060830184611262565b95945050505050565b634e487b7160e01b600052601160045260246000fd5b808201808211156115445761154461151b565b92915050565b600181811c9082168061155e57607f821691505b60208210810361157e57634e487b7160e01b600052602260045260246000fd5b50919050565b600063ffffffff80831681810361159d5761159d61151b565b6001019392505050565b601f8211156115f157600081815260208120601f850160051c810160208610156115ce5750805b601f850160051c820191505b818110156115ed578281556001016115da565b5050505b505050565b815167ffffffffffffffff81111561161057611610611348565b6116248161161e845461154a565b846115a7565b602080601f83116001811461165957600084156116415750858301515b600019600386901b1c1916600185901b1785556115ed565b600085815260208120601f198616915b8281101561168857888601518255948401946001909101908401611669565b50858210156116a65787850151600019600388901b60f8161c191681555b5050505050600190811b01905550565b634e487b7160e01b600052603260045260246000fd5b6000600182016116de576116de61151b565b5060010190565b818103818111156115445761154461151b565b80820281158282048414176115445761154461151b565b60008261172c57634e487b7160e01b600052601260045260246000fd5b50049056fea26469706673582212203e59d1fdad2d3fef888604ba10746152e7e9e34268b5a86cc44302f5763be05e64736f6c63430008110033",
  "linkReferences": {},
  "deployedLinkReferences": {}
}