{
  "_format": "hh-sol-artifact-1",
  "contractName": "CrowdSourcingFactory",
  "sourceName": "contracts/CrowdSourcingFactory.sol",
  "abi": [
    {
      "inputs": [
        {
          "internalType": "address",
          "name": "_implementation",
          "type": "address"
        }
      ],
      "stateMutability": "nonpayable",
      "type": "constructor"
    },
    {
      "anonymous": false,
      "inputs": [
        {
          "indexed": true,
          "internalType": "address",
          "name": "previousOwner",
          "type": "address"
        },
        {
          "indexed": true,
          "internalType": "address",
          "name": "newOwner",
          "type": "address"
        }
      ],
      "name": "OwnershipTransferred",
      "type": "event"
    },
    {
      "anonymous": false,
      "inputs": [
        {
          "indexed": true,
          "internalType": "address",
          "name": "owner",
          "type": "address"
        },
        {
          "indexed": false,
          "internalType": "uint256",
          "name": "amount",
          "type": "uint256"
        },
        {
          "indexed": false,
          "internalType": "address",
          "name": "cloneAddress",
          "type": "address"
        },
        {
          "indexed": false,
          "internalType": "string",
          "name": "fundingCID",
          "type": "string"
        }
      ],
      "name": "newCrowdFundingCreated",
      "type": "event"
    },
    {
      "inputs": [
        {
          "internalType": "uint256",
          "name": "",
          "type": "uint256"
        }
      ],
      "name": "_deployedContracts",
      "outputs": [
        {
          "internalType": "address",
          "name": "",
          "type": "address"
        }
      ],
      "stateMutability": "view",
      "type": "function"
    },
    {
      "inputs": [
        {
          "internalType": "string",
          "name": "_fundingCId",
          "type": "string"
        },
        {
          "internalType": "uint256",
          "name": "_amount",
          "type": "uint256"
        },
        {
          "internalType": "uint256",
          "name": "_duration",
          "type": "uint256"
        }
      ],
      "name": "createCrowdFundingContract",
      "outputs": [
        {
          "internalType": "address",
          "name": "",
          "type": "address"
        }
      ],
      "stateMutability": "payable",
      "type": "function"
    },
    {
      "inputs": [],
      "name": "deployedContracts",
      "outputs": [
        {
          "internalType": "address[]",
          "name": "",
          "type": "address[]"
        }
      ],
      "stateMutability": "view",
      "type": "function"
    },
    {
      "inputs": [],
      "name": "fundingFee",
      "outputs": [
        {
          "internalType": "uint256",
          "name": "",
          "type": "uint256"
        }
      ],
      "stateMutability": "view",
      "type": "function"
    },
    {
      "inputs": [],
      "name": "owner",
      "outputs": [
        {
          "internalType": "address",
          "name": "",
          "type": "address"
        }
      ],
      "stateMutability": "view",
      "type": "function"
    },
    {
      "inputs": [],
      "name": "renounceOwnership",
      "outputs": [],
      "stateMutability": "nonpayable",
      "type": "function"
    },
    {
      "inputs": [
        {
          "internalType": "address",
          "name": "newOwner",
          "type": "address"
        }
      ],
      "name": "transferOwnership",
      "outputs": [],
      "stateMutability": "nonpayable",
      "type": "function"
    },
    {
      "inputs": [],
      "name": "withdrawFunds",
      "outputs": [],
      "stateMutability": "nonpayable",
      "type": "function"
    },
    {
      "stateMutability": "payable",
      "type": "receive"
    }
  ],
  "bytecode": "0x60a060405266038d7ea4c6800060025534801561001b57600080fd5b50604051610a04380380610a0483398101604081905261003a916100a4565b61004333610054565b6001600160a01b03166080526100d4565b600080546001600160a01b038381166001600160a01b0319831681178455604051919092169283917f8be0079c531659141344cd1fd0a4f28419497f9722a3daafe3b4186f6b6457e09190a35050565b6000602082840312156100b657600080fd5b81516001600160a01b03811681146100cd57600080fd5b9392505050565b6080516109156100ef60003960006102f501526109156000f3fe60806040526004361061007f5760003560e01c8063b91737041161004e578063b917370414610112578063c43b842314610132578063c54a958814610145578063f2fde38b1461016757600080fd5b806324600fc31461008b5780635d16e120146100a2578063715018a6146100cb5780638da5cb5b146100e057600080fd5b3661008657005b600080fd5b34801561009757600080fd5b506100a0610187565b005b3480156100ae57600080fd5b506100b860025481565b6040519081526020015b60405180910390f35b3480156100d757600080fd5b506100a0610268565b3480156100ec57600080fd5b506000546001600160a01b03165b6040516001600160a01b0390911681526020016100c2565b34801561011e57600080fd5b506100fa61012d3660046106ab565b61027c565b6100fa6101403660046106da565b6102a6565b34801561015157600080fd5b5061015a610489565b6040516100c2919061079e565b34801561017357600080fd5b506100a06101823660046107eb565b6104eb565b61018f610564565b47806101d85760405162461bcd60e51b81526020600482015260136024820152726e6f7468696e6720746f20776974686472617760681b60448201526064015b60405180910390fd5b604051600090339083908381818185875af1925050503d806000811461021a576040519150601f19603f3d011682016040523d82523d6000602084013e61021f565b606091505b50509050806102645760405162461bcd60e51b81526020600482015260116024820152701dda5d1a191c985dd85b0819985a5b1959607a1b60448201526064016101cf565b5050565b610270610564565b61027a60006105be565b565b6001818154811061028c57600080fd5b6000918252602090912001546001600160a01b0316905081565b60006002543410156102ee5760405162461bcd60e51b815260206004820152601160248201527019195c1bdcda5d081d1bdbc81cdb585b1b607a1b60448201526064016101cf565b60006103197f000000000000000000000000000000000000000000000000000000000000000061060e565b90506000816001600160a01b031686868660405160240161033c9392919061086b565b60408051601f198184030181529181526020820180516001600160e01b031663025df42360e61b179052516103719190610890565b6000604051808303816000865af19150503d80600081146103ae576040519150601f19603f3d011682016040523d82523d6000602084013e6103b3565b606091505b50509050806103f65760405162461bcd60e51b815260206004820152600f60248201526e18dc99585d1a5bdb8819985a5b1959608a1b60448201526064016101cf565b6001805480820182556000919091527fb10e2d527612073b26eecdfd717e6a320cf44b4afac2b0732d9fcbe2b7fa0cf60180546001600160a01b0319166001600160a01b03841617905560025460405133917f7e4479af2e084d696e6ebdd2210744079c2160ec174a47e010176c938a96cda691610478919086908b906108ac565b60405180910390a250949350505050565b606060018054806020026020016040519081016040528092919081815260200182805480156104e157602002820191906000526020600020905b81546001600160a01b031681526001909101906020018083116104c3575b5050505050905090565b6104f3610564565b6001600160a01b0381166105585760405162461bcd60e51b815260206004820152602660248201527f4f776e61626c653a206e6577206f776e657220697320746865207a65726f206160448201526564647265737360d01b60648201526084016101cf565b610561816105be565b50565b6000546001600160a01b0316331461027a5760405162461bcd60e51b815260206004820181905260248201527f4f776e61626c653a2063616c6c6572206973206e6f7420746865206f776e657260448201526064016101cf565b600080546001600160a01b038381166001600160a01b0319831681178455604051919092169283917f8be0079c531659141344cd1fd0a4f28419497f9722a3daafe3b4186f6b6457e09190a35050565b6000604051733d602d80600a3d3981f3363d3d373d3d3d363d7360601b81528260601b60148201526e5af43d82803e903d91602b57fd5bf360881b60288201526037816000f09150506001600160a01b0381166106a65760405162461bcd60e51b8152602060048201526016602482015275115490cc4c4d8dce8818dc99585d194819985a5b195960521b60448201526064016101cf565b919050565b6000602082840312156106bd57600080fd5b5035919050565b634e487b7160e01b600052604160045260246000fd5b6000806000606084860312156106ef57600080fd5b833567ffffffffffffffff8082111561070757600080fd5b818601915086601f83011261071b57600080fd5b81358181111561072d5761072d6106c4565b604051601f8201601f19908116603f01168101908382118183101715610755576107556106c4565b8160405282815289602084870101111561076e57600080fd5b82602086016020830137600060208483010152809750505050505060208401359150604084013590509250925092565b6020808252825182820181905260009190848201906040850190845b818110156107df5783516001600160a01b0316835292840192918401916001016107ba565b50909695505050505050565b6000602082840312156107fd57600080fd5b81356001600160a01b038116811461081457600080fd5b9392505050565b60005b8381101561083657818101518382015260200161081e565b50506000910152565b6000815180845261085781602086016020860161081b565b601f01601f19169290920160200192915050565b60608152600061087e606083018661083f565b60208301949094525060400152919050565b600082516108a281846020870161081b565b9190910192915050565b8381526001600160a01b03831660208201526060604082018190526000906108d69083018461083f565b9594505050505056fea26469706673582212204538250d7eea129f5fbadbffa0f84736568725280e3cb925d5dab249ca5f5c9664736f6c63430008110033",
  "linkReferences": {},
  "deployedLinkReferences": {}
}